:020000040800F2
:1000000060040020450100084D1400089710000806
:1000100049140008D7020008E51600080000000097
:100020000000000000000000000000007D14000837
:10003000DB02000800000000511400087F140008D3
:100040005F0100085F0100085F0100085F01000810
:100050005F0100085F0100085F0100085F01000800
:100060005F0100085F0100085F0100085F010008F0
:100070005F0100085F0100085F0100085F010008E0
:100080005F0100085F0100085F0100085F010008D0
:100090005F0100085F0100085F0100085F010008C0
:1000A0005F0100085F0100085F0100085F010008B0
:1000B0005F0100085F0100085F0100085F010008A0
:1000C0005F0100085F0100085F0100085F01000890
:1000D0005F0100085F0100085F0100085F01000880
:1000E0005F0100085F0100085F0100085F01000870
:1000F0005F0100085F0100085F0100085F01000860
:100100005F0100085F0100085F0100085F0100084F
:100110005F0100085F0100085F0100085F0100083F
:100120005F0100085F0100085F0100085F0100082F
:10013000DFF80CD000F02AF80048004785180008C6
:10014000600400200648804706480047FEE7FEE7B7
:10015000FEE7FEE7FEE7FEE7FEE7FEE7FEE7FEE777
:10016000ED14000831010008D2B201E000F8012BC3
:10017000491EFBD270470022F6E710B513460A4627
:1001800004461946FFF7F0FF204610BD064C074D08
:1001900006E0E06840F0010394E807009847103457
:1001A000AC42F6D3FFF7C8FF141A0008341A00084F
:1001B00010B5FF2000F028F80446552C01D100208E
:1001C00010BD5521FF2000F05DF8FF2000F01CF865
:1001D0000446552C01D10020F2E70120F0E710B5CC
:1001E00000F088FF10BD70B506460C46154608E0C5
:1001F0003046721C96B200F007F804F8010B681E36
:1002000085B2002DF4D170BD70B50446002601F012
:100210001DF82546E11704EB11610912A02202EB3B
:100220004101C8B200F0DAFF01F066F8E11704EB13
:1002300011610912A4EB0121C8B200F0CFFF01F057
:100240005BF801F003F8A12000F0C8FF01F054F8BA
:10025000002000F089FF064601F024F8304670BD0A
:1002600070B505460C46164606E02178284600F093
:1002700009F8681C85B2641C3000A6F101018EB239
:10028000F3D170BD70B504460E4600F0DFFF254681
:10029000E11704EB11610912A02202EB4101C8B27F
:1002A00000F09CFF01F028F8E11704EB116109123E
:1002B000A4EB0121C8B200F091FF01F01DF8304617
:1002C00000F08CFF01F018F800F0ECFF42F2107023
:1002D00001F0B0FA70BD00BFFEE7704772B600BF14
:1002E000FEE7000070B5044600F0BEF9064625465C
:1002F000681C10B104480078054400BF00F0B4F950
:10030000801BA842FAD370BD080000202DE9F847F1
:10031000024600239C467BE14FF0010808FA03F4F3
:10032000D1F8008008EA0400A0427DD1DFF8F4A2F1
:10033000D1F80480A8EB0A09D0453AD014DCB8F112
:10034000030F50D009DCB8F1000F31D0B8F1010F24
:100350001CD0B8F1020F49D120E0B8F1110F18D02C
:10036000B8F1120F42D11EE0B9F5881F25D006DC86
:10037000B9F5803F20D0B9F5801F37D11AE0B9F523
:10038000001F18D0B9F5041F30D117E0D1F80CC008
:100390002DE0D1F80C8008F1040C28E0D1F80C8095
:1003A00008F1080C23E0D1F80C8008F10C0C1EE0D9
:1003B00000BF00BF00BF00BF00BF00BFD1F8088072
:1003C000B8F1000F02D14FF0040C0BE0D1F8088017
:1003D000B8F1010F03D14FF0080C146102E04FF0A7
:1003E000080C546103E04FF0000C00E000BF00BFB8
:1003F000FF2801D8904601E002F104084646FF2894
:1004000002D84FEA830803E0A3F108084FEA8808FE
:100410004746D6F800804FF00F0909FA07F928EA95
:1004200009080CFA07F900E07AE048EA0908C6F87A
:100430000080D1F8048008F08058B8F1805F6FD157
:1004400000BFDFF8E481D8F8188048F00108DFF831
:10045000D891C9F81880C846D8F8188008F0010863
:10046000CDF8008000BF00BF4FEAB9384FEA9309CA
:1004700058F829504FEA83784FEA18794FF00F085F
:1004800008FA09F825EA0805DFF8A081424502D1FB
:100490004FF0000824E0DFF89881424502D14FF088
:1004A00001081DE0DFF88C81424502D14FF00208BF
:1004B00016E0DFF88481424502D14FF003080FE0D7
:1004C000DFF87881424502D14FF0040808E0DFF8F8
:1004D0007081424502D14FF0050801E04FF0060857
:1004E0004FEA83794FEA197908FA09F848EA0505CD
:1004F000DFF850814FEA930948F82950D1F8048079
:1005000008F48018B8F5801F0BD1DFF83C81D8F8CB
:10051000008048EA0008DFF83091C9F800800AE05E
:1005200075E0DFF82481D8F8008028EA0008DFF8B9
:100530001891C9F80080D1F8048008F40018B8F5C3
:10054000001F0ED1DFF8008108F10408D8F8008000
:1005500048EA0008DFF8F09009F10409C9F80080C2
:100560000DE0DFF8E48008F10408D8F8008028EAFC
:100570000008DFF8D49009F10409C9F80080D1F827
:10058000048008F40038B8F5003F0ED1DFF8B880D9
:10059000A8F10408D8F8008048EA0008DFF8A8901D
:1005A000A9F10409C9F800800DE0DFF89C80A8F1EA
:1005B0000408D8F8008028EA0008DFF88C90A9F138
:1005C0000409C9F80080D1F8048008F48038B8F52F
:1005D000803F0ED1DFF87080A8F10808D8F80080BD
:1005E00048EA0008DFF86090A9F10809C9F800801E
:1005F0000DE0DFF85480A8F10808D8F8008028EA58
:100600000008DFF84490A9F10809C9F800805B1CD4
:10061000D1F8008028FA03F8B8F1000F7FF47CAE1F
:10062000BDE8F887000011100010024000080140EA
:10063000000C01400010014000140140001801406E
:10064000001C014008000140080401400246936874
:100650000B400BB1012000E0002070470AB101619E
:1006600001E00B0403617047014800687047000017
:100670000000002003480068034909780844014944
:1006800008607047000000200800002010B50848EE
:10069000006840F0100006490860032000F098F858
:1006A000002000F007F800F02BF8002010BD00003B
:1006B0000020024070B504460E4800784FF47A716D
:1006C000B1FBF0F00C490968B1FBF0F5284600F0E9
:1006D000E9FB08B1012070BD102C07D20022214691
:1006E000501E00F037F80548046001E00120F2E7F1
:1006F0000020F0E7080000200C000020040000208B
:1007000008B500BF1148806940F001000F498861B9
:100710000846806900F00100009000BF00BF00BFE4
:100720000846C06940F08050C8610846C06900F0C2
:100730008050009000BF00BF00BF0549486820F00E
:10074000E06040F00070486000BF08BD001002404B
:10075000000001402DE9F05F80460D461646002757
:1007600000F0D2FF074639462A46334601F007001B
:10077000C0F1070ABAF1040F02D94FF0040A01E0F0
:10078000C0F1070AD14600F1040ABAF1070F02D2FC
:100790004FF0000A01E0A0F1030AD4464FF0010A2D
:1007A0000AFA09FAAAF1010A0AEA020A0AFA0CFA92
:1007B0004FF0010B0BFA0CFBABF1010B0BEA030B37
:1007C0004AEA0B042146404600F0A6FFBDE8F09F30
:1007D00000BF00F00702064B19684FF6FF031940EF
:1007E000044B0B4343EA0221014B196000BF7047E1
:1007F0000CED00E00000FA0570B504460D460CB99A
:10080000012070BD5A48006800F00700A8420ED2CF
:100810005748006820F007002843554908600846FB
:10082000006800F00700A84201D00120E9E7207825
:1008300000F0020002281DD1207800F004000428F6
:1008400005D14C48406840F4E0604A49486020784F
:1008500000F00800082805D14648406840F4605080
:10086000444948604348406820F0F000A1680843CC
:1008700040494860207800F0010078B360680128A2
:1008800006D13C48006800F4003090B90120B8E778
:100890006068022806D13748006800F0007040B94F
:1008A0000120AEE73348006800F0020008B90120DB
:1008B000A7E73048406820F00300616808432D49ED
:1008C0004860FFF7D1FE064609E0FFF7CDFE801B2A
:1008D00041F28831884202D9032092E707E0254897
:1008E000406800F00C006168B0EB810FEDD120484A
:1008F000006800F00700A8420ED91D48006820F0EB
:10090000070028431A4908600846006800F00700FD
:10091000A84201D0012074E7207800F004000428E8
:1009200007D11448406820F4E060E16808431149A9
:100930004860207800F00800082808D10D48406879
:1009400020F46050216940EAC1000A49486000F083
:100950003FF808494968C1F30311074A515CC84090
:100960000649086006480068FFF7A4FE002048E733
:100970000020024000100240F91900080C0000207D
:100980000400002001480068704700000C000020AF
:1009900000B5FFF7F7FF04494968C1F30221034A94
:1009A000515CC84000BD000000100240091A000858
:1009B00000B5FFF7E7FF04494968C1F3C221034AC4
:1009C000515CC84000BD000000100240091A000838
:1009D00070B500210022002400230020134D696817
:1009E00001F00C05F5B1042D02D0082D19D101E05C
:1009F0000F4819E00F4DC1F38346AB5D01F480351C
:100A000055B10A4D6D68C5F340450B4E725D084DFA
:100A10005D43B5FBF2F402E0084D03FB05F420460C
:100A200002E000BF024800BF00BF70BD00100240DE
:100A300000127A00E7190008F719000800093D00C4
:100A4000F8B504460CB90120F8BD207800F001008B
:100A5000002878D0F848406800F00C0004280CD03A
:100A6000F548406800F00C00082811D1F2484068B1
:100A700000F48030B0F5803F0AD1EF48006800F400
:100A8000003000285FD0606800285CD10120DBE7DF
:100A900000BF6068B0F5803F06D1E748006840F4C9
:100AA0008030E549086028E0606858B9E24800688D
:100AB00020F48030E04908600846006820F4802077
:100AC00008601AE06068B0F5A02F0BD1DA48006822
:100AD00040F48020D84908600846006840F480301F
:100AE00008600AE0D448006820F48030D2490860E9
:100AF0000846006820F48020086000BF606888B164
:100B0000FFF7B2FD054606E0FFF7AEFD401B642887
:100B100001D9032098E7C848006800F40030002895
:100B2000F2D010E0FFF7A0FD054606E0FFF79CFDC0
:100B3000401B642801D9032086E7BF48006800F401
:100B400000300028F2D1207800F00200022857D1AE
:100B5000B948406800F00C0050B1B748406800F058
:100B60000C00082818D1B448406800F4803098B9C7
:100B7000B148006800F0020020B12069012801D0CE
:100B8000012061E7AC48006820F0F800616940EAA4
:100B9000C100A949086033E02069E8B10120A749F4
:100BA0000860FFF761FD054606E0FFF75DFD401BAD
:100BB000022801D9032047E79F48006800F002009F
:100BC0000028F2D09C48006820F0F800616940EAF3
:100BD000C1009949086013E0002098490860FFF7B8
:100BE00043FD054606E0FFF73FFD401B022801D903
:100BF000032029E79048006800F002000028F2D1A5
:100C0000207800F0080008282DD1A069B8B1012093
:100C10008B490860FFF728FD054606E0FFF724FD35
:100C2000401B022801D903200EE78348406A00F0E8
:100C300002000028F2D0012000F00CFC13E000209C
:100C40007F490860FFF710FD054606E0FFF70CFD41
:100C5000401B022801D90320F6E67748406A00F0DD
:100C600002000028F2D1207800F00400042873D19B
:100C700000277148C06900F0805070B900BF6E480D
:100C8000C06940F080506C49C8610846C06900F0F6
:100C90008050009000BF00BF01276A48006800F440
:100CA0008070B0B96748006840F48070654908609A
:100CB000FFF7DAFC054606E0FFF7D6FC401B642888
:100CC00001D90320C0E65F48006800F48070002866
:100CD000F2D000BFE068012806D15748006A40F012
:100CE00001005549086227E0E06858B95248006A97
:100CF00020F00100504908620846006A20F0040014
:100D0000086219E0E06805280BD14B48006A40F002
:100D10000400494908620846006A40F00100086280
:100D20000AE04548006A20F001004349086208468D
:100D3000006A20F00400086200BFE068A0B1FFF77D
:100D400093FC054609E0FFF78FFC401B41F2883118
:100D5000884202D9032077E622E03748006A00F093
:100D600002000028EFD012E0FFF77EFC054608E005
:100D7000FFF77AFC401B41F28831884201D90320F9
:100D800062E62D48006A00F002000028F0D1012F31
:100D900005D12948C06920F080502749C86100BFAB
:100DA000E069C8B32448406800F00C00082860D00F
:100DB000E069022848D1002020490866FFF754FC6A
:100DC000054606E0FFF750FC401B022801D903202E
:100DD0003AE61948006800F000700028F2D1206A55
:100DE000B0F5803F07D11448406820F40030A16876
:100DF000084311494860D4E9080108430E4949688D
:100E000021F4741108430C49486001200B4908661D
:100E1000FFF72AFC054607E03DE0FFF725FC401BF5
:100E2000022801D903200FE60348006800F0007093
:100E30000028F2D02FE000000010024000004242E3
:100E40008004424200700040002014490866FFF709
:100E50000BFC054606E0FFF707FC401B022801D902
:100E60000320F1E50E48006800F000700028F2D180
:100E700011E0E069012800D1E6E50948466806F47A
:100E80008031206A814204D106F47011606A814287
:100E900001D00120D8E50020D6E500000000424244
:100EA0000010024070B504462546681EB0F1807FF0
:100EB00001D301200FE0681E4FF0E02148610F21AF
:100EC0004FF0FF3000F028FC00204FF0E021886157
:100ED00007200861002070BD10B504460CB9012040
:100EE00010BDA06900B100E000BF94F8410028B92E
:100EF000002084F84000204600F02AF8242084F8DE
:100F000041002068C06820F400502168C860204675
:100F100000F024FB2068006920F4904021680861FB
:100F20002068406920F02A00216848612068C06874
:100F300040F400502168C86000206064202084F8DC
:100F4000410084F842000020606300BFC8E7000051
:100F500010B586B0044600200290039004900590DE
:100F60001A49206888422ED100BF1948806940F490
:100F70008040174988610846806900F480400190EC
:100F800000BF00BF00BF0846806940F004008861D0
:100F90000846806900F00400019000BF00BF4815BA
:100FA0000290022003900320059002A90948FFF750
:100FB000ADF94FF48060029000200390049002A9E4
:100FC0000448FFF7A3F906B010BD00000038014047
:100FD00000100240000801402DE9F84F04460E467B
:100FE000174699464FF0000A94F84100202850D146
:100FF00006B117B90120BDE8F88F002060642120F8
:1010000084F84100FFF730FB8246A784E784A0689C
:10101000B0F5805F04D1206910B90025B04602E028
:1010200035464FF000081EE053460022802120463E
:10103000CDF8009000F010FB20B1202084F8410092
:101040000320D8E745B9B8F80000C0F308002168CC
:10105000486008F1020803E02878216848606D1CA8
:10106000E08C401EE084E08C0028DDD15346002255
:1010700040212046CDF8009000F0EEFA20B120206B
:1010800084F841000320B6E7202084F841000020C6
:10109000B1E70220AFE700BFFEE7000010B5002275
:1010A0004FF480511248FFF7D9FA1148406820F4F4
:1010B00070400F4948600846406840F4405048601E
:1010C0000022C9140A48FFF7C9FA022000F0B2FB57
:1010D000012211030648FFF7C1FA022000F0AAFB23
:1010E00000224FF480510248FFF7B8FA10BD00000B
:1010F0000010014010B50122D1020448FFF7AEFAFA
:10110000012211030148FFF7A9FA10BD00100140A8
:1011100010B500224FF480511248FFF79FFA114892
:10112000406820F470400F4948600846406840F429
:10113000405048600122C9140A48FFF78FFA022084
:1011400000F078FB012211030648FFF787FA02201E
:1011500000F070FB00224FF480510248FFF77EFA46
:1011600010BD00000010014070B5054600241A486B
:10117000406820F47040184948600846406840F4D0
:101180000040486000261CE000224FF480511248C5
:10119000FFF764FA022000F04DFB012211030E4814
:1011A000FFF75CFA6006040E4FF400610A48FFF78F
:1011B0004DFA08B1601CC4B2012000F03BFB701C6A
:1011C000C6B2082EE0DB15B9FFF7A2FF01E0FFF77A
:1011D00065FF204670BD00000010014070B5044658
:1011E0001948406820F47040174948600846406834
:1011F00040F440504860002289141348FFF72EFA4B
:1012000000251DE0E2094FF400610F48FFF726FAC0
:101210006006040E022000F00DFB012211030A48B3
:10122000FFF71CFA022000F005FB00224FF480516A
:101230000548FFF713FA022000F0FCFA681CC5B25B
:10124000082DDFDB70BD00000010014010B5144810
:10125000406820F47040124948600846406840F4F5
:10126000405048600122C9140D48FFF7F7F90122E8
:1012700011030B48FFF7F2F9042000F0DBFA00221B
:101280004FF400610648FFF7E9F9042000F0D2FAB4
:1012900000224FF480510248FFF7E0F910BD000032
:1012A0000010014010B51348406820F47040114907
:1012B00048600846406840F4405048600022891465
:1012C0000C48FFF7CBF900224FF400610948FFF703
:1012D000C5F9042000F0AEFA012211030548FFF71A
:1012E000BDF90122D1020348FFF7B8F9042000F04C
:1012F000A1FA10BD0010014010B500241948406843
:1013000020F47040174948600846406840F40040A7
:1013100048600122C9141348FFF7A0F9012000F02A
:1013200089FA012211030F48FFF798F9012000F014
:1013300081FA07E0601CC4B2FA2C03DDFFF7B2FFAC
:10134000012010BD4FF400610648FFF77FF9002827
:10135000F0D100224FF480510248FFF77FF90020BE
:10136000EFE700000010014000B585B000200190BB
:1013700002900390049000BF2348806940F0200051
:10138000214988610846806900F02000009000BF74
:1013900000BF00BF0846806940F00400886108462D
:1013A000806900F00400009000BF00BF00BF084645
:1013B000806940F0100088610846806900F01000E4
:1013C000009000BF00BF00224FF4C0510F48FFF74C
:1013D00045F94FF400600190012002900020039035
:1013E0000220049001A90948FEF790FF4FF48050B5
:1013F00001900120029003900220049001A903486B
:10140000FEF784FF05B000BD00100240001001404F
:1014100010B50B480B4908604FF4E13048600021DB
:1014200008488160C16001610C2141610021816136
:10143000C161FFF751FD08B1FEF750FF10BD00007C
:10144000003801401400002000BFFEE700BFFEE7A7
:101450007047000008B508490968C9084FF47A7256
:10146000B1FBF2F14143009100BF00BF00994A1E59
:1014700000920029F9D108BD0C000020704710B57A
:10148000FFF7F8F810BD00B58FB0282105A8FEF7CA
:1014900072FE14216846FEF76EFE012005900004DE
:1014A0000690002007900120099002200C90C103B3
:1014B0000D914FF4E0110E9105A8FFF7C1FA08B1A4
:1014C000FEF70CFF0F2000900220019000200290F8
:1014D0004FF4806003900020049002216846FFF7DB
:1014E0008BF908B1FEF7FAFE0FB000BD704700BFE0
:1014F00000BF02680C3252E8002F22F4907102689B
:101500000C3242E80013002BF3D100BF00BF00BF34
:101510000268143252E8002F22F0010102681432EE
:1015200042E80013002BF3D100BF016B01290ED15B
:1015300000BF00BF02680C3252E8002F22F01001F9
:1015400002680C3242E80013002BF3D100BF2021C7
:1015500080F84210002101637047000070B5044616
:101560002168096921F44051E26811432268116140
:101570002269A1681143626941EA02052168C968CC
:1015800041F20C62914329432268D1602168496984
:1015900021F44071A2691143226851612D4A2168EA
:1015A000914202D1FFF704FA01E0FFF7F1F900EBF5
:1015B000C00101EB001162689200B1FBF2F100EB97
:1015C000C00202EB001263689B00B2FBF3F26423DB
:1015D000B2FBF3F202EBC20303EB0212A1EB8201B6
:1015E000322202EB01116422B1FBF2F101F0F001B1
:1015F00000EBC00202EB001263689B00B2FBF3F247
:101600006423B2FBF3F201EB021200EBC00101EB29
:10161000001163689B00B1FBF3F100EBC00303EB27
:1016200000136668B600B3FBF6F36426B3FBF6F36B
:1016300003EBC30606EB0313A1EB8301322303EB99
:1016400001116423B1FBF3F101F00F011144226891
:10165000916070BD003801402DE9F84304460D4605
:1016600017469846089E31E0701C70B3FEF7FCFFE9
:10167000A0EB0800B04200D816B90320BDE8F883FB
:101680002068C06800F00400F8B1802D1ED0402D05
:101690001CD020680068C0F3C000B0B100BF0020BB
:1016A000009020680068009020684068009000BFAB
:1016B00000BF2046FFF71BFF0820606400BF00202A
:1016C00084F8400000BF0120D8E7FFE720680068E9
:1016D0002840A84201D1012000E00020B842C3D038
:1016E0000020CBE700BFFEE70FB4054B10B503A900
:1016F000044A029800F033F810BC5DF814FB0000B7
:10170000691800081000002002480068C0F3022099
:10171000704700000CED00E010B5002804DB0A075C
:10172000130E054A135406E00A07140E034A00F08C
:101730000F031B1FD45410BD00E400E018ED00E0BF
:1017400002E008C8121F08C1002AFAD1704770478A
:10175000002001E001C1121F002AFBD170472DE9D2
:10176000F84F9946924688460546002706E0252808
:101770000AD051464A4690476D1C7F1C28780028A5
:10178000F5D13846BDE8F88F002315F8011F18463B
:101790002E2915D115F8011F04232A290DD06FF029
:1017A0002F022978A1F13004092C09D800EB800020
:1017B00002EB400008446D1CF3E758F8040B6D1C65
:1017C0002A78002ADDD0632A07D0732A0FD010466A
:1017D00051464A4690477F1C2AE018F8042B8DF8A2
:1017E000002000218DF801106E46012103E058F819
:1017F000046B4FF0FF315A074FF0000401D409E0A9
:10180000641C84420BDA8C42FADB325D002AF7D189
:1018100005E0641C8C42FCDB305D0028F9D12744D4
:1018200004E016F8010B51464A469047641EF8D270
:101830006D1CA3E770B50446FFF7A4F80949B0FB97
:10184000F1F52846FFF72EFB601EFEF74BFDFFF774
:1018500099F84FF47A71B0FBF1F52846FFF722FBB7
:1018600070BD000040420F0013B50C464FF6FF73E9
:10187000012269460248FFF7AFFB00981CBD00003B
:10188000140000208AB0FEF701FFFFF7FCFDFFF710
:101890006BFDFFF7BDFDFEF7A2FC0DE01CA0FFF7FE
:1018A00023FF4CF25030FFF7C5FF1FA0FFF71CFFCE
:1018B0004CF25030FFF7BEFFFEF77AFC0028EDD166
:1018C0001FA0FFF711FF4CF25030FFF7B3FF22A02B
:1018D000FFF70AFF232226490020FEF7C1FC25A0BE
:1018E000FFF702FF4CF25030FFF7A4FF27A0FFF7ED
:1018F000FBFE232201A90020FEF775FC29A0FFF7BB
:10190000F3FE01A92DA0FFF7EFFE00BFFEE70000E8
:10191000323443303220436865636B204661696C22
:101920006564210D0A000000506C656173652043F9
:101930006865636B212020202020200D0A00000014
:10194000323443303220436865636B2053756363E0
:101950006565642100000000537461727420577241
:101960006974652032344330322E2E2E2E0D0A003B
:10197000C41900083234433032205772697465202C
:1019800046696E6973686564210D0A00537461725B
:101990007420526561642032344330322E2E2E2E54
:1019A000200D0A005468652044617461205265610D
:1019B0006465642049733A20200D0A002573200DC8
:1019C0000A0000004D696E6953544D333220536F45
:1019D0006674776172652049494320544553542009
:1019E0006279204443520002030405060708090AED
:1019F0000B0C0D0E0F101001020000000000000083
:101A000000010203040607080900000000010203A8
:101A100004000000341A0008000000201400000038
:101A200040170008481A0008140000204C04000069
:101A30005017000800000000100000000100000026
:081A400000127A000000000012
:0400000508000131BD
:00000001FF
