:020000040800F2
:10000000D004002045010008AB120008C51100080B
:10001000A912000853020008CB15000800000000D8
:10002000000000000000000000000000191400089B
:100030005502000800000000AD1200081B14000863
:100040005F0100085F0100085F0100085F01000810
:100050005F0100085F0100085F0100085F01000800
:100060005F0100085F0100085F0100085F010008F0
:100070005F0100085F0100085F0100085F010008E0
:100080005F0100085F0100085F0100085F010008D0
:100090005F0100085F0100085F0100085F010008C0
:1000A0005F0100085F0100085F0100085F010008B0
:1000B0005F0100085F0100085F0100085F010008A0
:1000C0005F0100085F0100085F0100085F01000890
:1000D0005F0100085F0100085F0100085F01000880
:1000E0005F0100085F0100085F0100085F01000870
:1000F0005F0100085F0100085F0100085F01000860
:100100005F0100085F0100085F0100085F0100084F
:100110005F0100085F0100085F0100085F0100083F
:100120005F0100085F0100085F0100085F0100082F
:10013000DFF80CD000F06CF800480047711C000894
:10014000D00400200648804706480047FEE7FEE747
:10015000FEE7FEE7FEE7FEE7FEE7FEE7FEE7FEE777
:100160007D14000831010008202A04DB203A21FA1E
:1001700002F00021704721FA02F3D040C2F12002C0
:100180009140084319467047D2B201E000F8012BB4
:10019000491EFBD270470022F6E710B513460A4607
:1001A00004461946FFF7F0FF204610BD2DE9F05F29
:1001B0000546002092469B468846064681464024D6
:1001C0001BE02846414647462246FFF7CDFF5346EF
:1001D0005A46C01A914110D311461846224600F0E3
:1001E00029F82D1A67EB01084F462246012000210D
:1001F00000F020F817EB00094E41201EA4F1010485
:10020000DFDC484631462A464346BDE8F09F000001
:10021000064C074D06E0E06840F0010394E8070053
:1002200098471034AC42F6D3FFF786FF801E0008D3
:10023000A01E0008202A04DB203A00FA02F1002068
:1002400070479140C2F1200320FA03F31943904014
:100250007047FEE7704772B6FEE700002DE9F84FE1
:10026000DFF8C8910024A9F1040B23460F2709F1F8
:10027000040AABF1040ED1E00125A54006EA05020F
:10028000AA4276D1DFF8A8C14E68A6EB0C086645F5
:100290002BD00DDC032E34D005DC36B3012E19D063
:1002A000022E2FD11BE0112E16D0122E2AD119E0CA
:1002B000B8F5881F19D006DCB8F5803F15D0B8F521
:1002C000801F1FD111E0B8F5001F0ED0B8F5041F34
:1002D00018D10AE0CB6815E0CB681B1D12E0CB6893
:1002E00008330FE0CB680C330CE08B682BB1012B8B
:1002F0004FF0080303D0456104E0042302E00561E8
:1003000000E00023FF2A01D8064601E000F10406C0
:100310004FEA840501D9A5F12005D6F8008007FA37
:1003200005FC28EA0C0803FA05F548EA0508C6F8B2
:1003300000804D68ED0070D53E4DAE6946F0010677
:10034000AE61AD6924F0030605F0010500953A4D54
:1003500006EB050CDCF80850A607360F07FA06F87E
:1003600025EA0805DFF8D480404503D14FF00008A6
:1003700025E052E0DFF8C880404502D14FF0010887
:100380001DE0DFF8C080404502D14FF0020816E0C2
:10039000DFF8B480404502D14FF003080FE0DFF8EA
:1003A000AC80404502D14FF0040808E0DFF8A0809F
:1003B000404502D14FF0050801E04FF0060808FA69
:1003C00006F848EA0508CCF808804D68D9F80060BE
:1003D000ED024D4601D5164300E096432E604D6870
:1003E000DAF80060AD02554601D5164300E09643A9
:1003F0002E604D68DBF80060AD035D4601D5164305
:1004000000E096432E604D68DEF80060ED0375460F
:1004100001D5164300E096432E60641C0A68164618
:10042000E2407FF429AFBDE8F88F000008040140E6
:1004300000001110001002400000014000080140BF
:10044000000C014000100140001401400018014060
:10045000001C01400AB1016170470904FBE700007C
:100460000148806870470000080000200248816849
:10047000027811448160704708000020074810B5D9
:10048000016841F010010160032000F067F80020CE
:1004900000F006F800F024F8002010BD0020024013
:1004A00070B50D4D04464FF47A712878B1FBF0F029
:1004B0000A490968B1FBF0F000F0B5FD48B9102C0D
:1004C00007D200222146501E00F028F800206C6060
:1004D00070BD012070BD0000080000201400002045
:1004E0000C4808B5816941F001018161816901F021
:1004F00001010091C16941F08051C161C06900F002
:10050000805000900448416821F0E06141F00071A2
:10051000416008BD0010024000000140F0B40E4BE5
:100520001B680C46C3F30223C3F10705042D00D951
:100530000425191D072901D2002300E0DB1E012636
:1005400006FA05F1491E214099409E40761E16404C
:100550003143F0BC01F032B90CED00E0064900F087
:10056000070208684FF6FF03184040EA0220034ADA
:1005700010430860704700000CED00E00000FA0531
:100580002DE9F0470F46050061D0434E306800F07A
:100590000700B84209D2306820F0070038433060C5
:1005A000306800F00700B84251D128683B4C810701
:1005B00012D5400703D5606840F4E0606060287899
:1005C000000703D5606840F4605060606068A96807
:1005D00020F0F000084360602878C00728D06868E1
:1005E000012810D02168022810D0890700292EDAAE
:1005F000616821F0030101436160FFF731FF80462C
:1006000041F288390DE021688903EFE78901EDE7C0
:10061000FFF726FFA0EB0801494502D90320BDE8FA
:10062000F0876068696800F00C00B0EB810FEFD1D3
:10063000306800F00700B8420BD9306820F007009E
:1006400038433060306800F00700B84201D0012024
:10065000E5E72878400705D56068E96820F4E060A0
:10066000084360602878000706D56068296920F48F
:10067000605040EAC100606000F038F86168084AE4
:10068000C1F30311515CC840064908600648006880
:10069000FFF706FF0020C2E70020024000100240E2
:1006A000661E0008140000200C00002004480549C4
:1006B00000684968044AC1F30221515CC840704790
:1006C0001400002000100240761E0008044805496E
:1006D00000684968044AC1F3C221515CC8407047B0
:1006E0001400002000100240761E00080E4A5168D7
:1006F0000E4801F00C03042B11D0082B0FD10C482D
:10070000C1F38343C903C05C0AD55168084AC1F3E9
:100710004041921E515C054A5043B0FBF1F07047D6
:1007200004494843704700000010024000127A005C
:10073000561E000800093D002DE9F84F040070D056
:100740002078C04DC00749D06868C0F381000128F7
:1007500007D06868C0F38100022809D16868C00327
:1007600006D52868800339D560680028E7D035E0D1
:100770006068B0F5803F0BD010B1B0F5A02F11D05C
:10078000286820F480302860286820F4802002E067
:10079000286840F480302860606890B1FFF760FE00
:1007A00006460AE0286840F480202860F0E700BF91
:1007B000FFF756FE801B642873D828688003F7D59E
:1007C0000CE0FFF74DFE064605E000BFFFF748FED0
:1007D000801B6428F0D828688003F7D420789A4ECC
:1007E00080074FF001094FF0000839D5686810F014
:1007F0000C0F07D06868C0F38100022809D168682F
:10080000C00306D42868800714D52069012808D1C0
:1008100010E02069B0B1C6F80090FFF721FE07464E
:1008200005E00AE1FFF71CFEC01B0228C4D82868B7
:100830008007F7D52868616920F0F80040EAC10018
:1008400028600DE0C6F80080FFF70AFE074604E0C6
:10085000FFF706FEC01B022823D828688007F7D4BC
:10086000207800072CD57948A169D9B1C0F800904B
:10087000FFF7F6FD074604E0FFF7F2FDC01B022874
:100880000FD8686A8007F7D571484FF4FA510068AD
:10089000B0FBF1F0009000BF0098411E0091FAD229
:1008A0000EE080E0C0F80080FFF7DAFD074604E0C4
:1008B000FFF7D6FDC01B022875D8686A8007F7D4F9
:1008C0002078400760D5E8690027C00008D4E869AF
:1008D00040F08050E861E869012700F08050009006
:1008E0005C480168C90513D40168834641F48071EE
:1008F0000160FFF7B5FD824606E000BFFFF7B0FDDF
:10090000A0EB0A0064284ED8DBF80000C005F5D53E
:10091000E06801280AD008B1052813D0286A20F021
:1009200001002862286A20F0040002E0286A40F0F2
:1009300001002862E06841F2883B98B1FFF790FD22
:1009400082460BE0286A40F004002862EEE700BF10
:10095000FFF786FDA0EB0A0159455AD8286A80079F
:10096000F6D50CE0FFF77CFD824605E0FFF778FD49
:10097000A0EB0A0159454CD8286A8007F6D41FB16C
:10098000E86920F08050E861E06988B36968C1F3E4
:100990008101022944D00228C6F8608004D0FFF704
:1009A0005FFD044638E034E0FFF75AFD074604E0F7
:1009B000FFF756FDC01B02282BD828688001F7D40A
:1009C000206AB0F5803F05D16868A16820F4003046
:1009D00008436860D4E908010843696821F4741188
:1009E00008436860C6F86090FFF73AFD044606E0E9
:1009F00025E000BFFFF734FD001B022809D8286856
:100A00008001F7D51BE000BFFFF72AFD001B02287D
:100A100002D90320BDE8F88F28688001F4D40EE0E5
:100A20000128F7D06868226A00F48031914204D12D
:100A3000616A00F47010884201D00120EAE70020CA
:100A4000E8E70000001002400000424280044242F9
:100A5000140000200070004070B5040009D0606AE6
:100A6000002540B125616561A56294F8510040B14F
:100A70000CE0012070BD6068B0F5827FF4D0E561C4
:100A8000F2E784F85050204600F040F8022084F845
:100A900051002068016821F040010160A08821898F
:100AA00000F4827001F404410843A18901F400615B
:100AB0000843217C01F002010843217D01F001017E
:100AC0000843218B01F400710843217F01F03801B4
:100AD000084394F8201001F080010843218D01F4AF
:100AE0000051084321680860A069042101EA104010
:100AF000216848602068C16921F40061C1616565B1
:100B0000012084F85100002070BD000030B585B090
:100B100000240094019402940394006814498842CC
:100B200023D11448816941F480518161816901F4C4
:100B300080510491816941F00401816180690E4D09
:100B400000F004000490A0200090022001900320F7
:100B5000039069462846FFF781FB4020CDE9000459
:100B6000694628460294FFF779FB05B030BD0000C6
:100B70000030014000100240000801402DE9F84F0C
:100B8000044690F851001D4616460F46012838D1FC
:100B900060684FF00408B0F5827F01D1A06830B3DF
:100BA000FFF75EFC8246002F75D0002E73D094F8BC
:100BB0005000012825D04FF0010984F8509084F8A6
:100BC00051804FF00008C4F85480A763A687E687D9
:100BD000C4F83080A4F83480A4F83680C4F840808B
:100BE000C4F84480A068B0F5004F0CD015E084F83C
:100BF0005180009313460A46204600F01CF9BDE8D8
:100C0000F88F0220FBE72068016821F040010160B5
:100C10002068016821F4804101602068016849066C
:100C200003D4016841F040010160E068C0B134E0E4
:100C300020688168C90709D0007BA16B0870A06B90
:100C4000401CA063E08F401EE08709E0FFF708FC2E
:100C5000A0EB0A00A84202D3681C01D032E085B3A1
:100C6000E08F0028E4D11BE020688168C90709D023
:100C7000C068A16B0880A06B801CA063E08F401E41
:100C8000E0870AE0FFF7ECFBA0EB0A00A84203D3E1
:100C9000681C02D016E012E09DB1E08F0028E3D17D
:100CA00052462946204600F002FB08B1202060652C
:100CB00084F8519084F85080606D00289FD0012006
:100CC0009DE7FFE784F8519084F85080032096E771
:100CD0002DE9F84F984616468A460446FFF7C0FBB2
:100CE000814694F8510001281ED1BAF1000F73D04B
:100CF000002E71D094F85000012815D0012784F8F7
:100D00005070032084F8510000256565C4F830A0B8
:100D1000A686E686A563A587E58765642564A06841
:100D2000B0F5004F03D00CE00220BDE8F88F20683A
:100D3000016821F0400101602068016841F48041B0
:100D4000016020680168490603D4016841F0400150
:100D50000160E068B0F5006F606803D048B3012E11
:100D600027D047E008B1012E1FD1206B21680088F1
:100D7000C86006E020688168890709D5216B098869
:100D8000C160206B801C2063E08E401EE0860CE07A
:100D9000FFF766FBA0EB0901414503D3B8F1FF3F24
:100DA00003D035E0B8F1000F32D0E08E0028E1D159
:100DB00023E0206B21680078087306E020688168D2
:100DC00089070AD5216B09780173206B401C2063C9
:100DD000E08E401EE0860DE02BE0FFF741FBA0EB2C
:100DE0000901414503D3B8F1FF3F03D010E0B8F14A
:100DF000000F0DD0E08E0028E0D14A464146204643
:100E000000F083FA08B120206065A06830B109E0E5
:100E100084F8517084F85050032086E72068C16838
:100E20008068009084F8517004F8505F6068002872
:100E3000F3D0012079E72DE9FF4F81B01D4693469D
:100E400004464FF001090E9EFFF70AFB074694F88F
:100E500051006168012806D0B1F5827F3CD1A168BC
:100E6000C9BB042838D10298002871D0BBF1000F0B
:100E7000FBD0002DF9D094F8500001282CD04FF071
:100E8000010A84F850A094F85100042802D00520EB
:100E900084F851004FF00008C4F85480C4F838B00A
:100EA000E587A58702992163E586A586C4F8408079
:100EB000C4F8448020680168490603D4016841F001
:100EC00040010160E068B0F5006F606808D0F0B3E1
:100ED000012D49D081E0FFE7022005B0BDE8F08F89
:100EE00008B1012D39D1206B21680088C860206BC2
:100EF000801C2063E08E401EE0862EE02068816822
:100F000089070FD5E18E69B1B9F1010F0AD1216BC3
:100F10000988C160206B801C2063E08E401EE08643
:100F20004FF0000920688168C9070CD0E18F51B1EA
:100F3000C068A16B0880A06B801CA063E08F401E7E
:100F4000E0874FF00109FFF78BFAC01B01E00BE0CF
:100F500067E0B04201D3701C50D1E08E0028CDD1A3
:100F6000E08F0028CAD13EE0206B2168007808732A
:100F7000206B401C2063E08E401EE0862DE0206840
:100F8000816889070FD5E18E69B1B9F1010F0AD1E6
:100F9000216B09780173206B401C2063E08E401E9A
:100FA000E0864FF0000920688168C9070CD0E18F06
:100FB00051B1C068A16B0870A06B401CA063E08FAA
:100FC000401EE0874FF00109FFF74AFAC01BB0420C
:100FD00002D3701C01D011E086B1E08E0028CED182
:100FE000E08F0028CBD13A463146204600F08DF9FB
:100FF00050B12020606584F8508012E084F851A040
:1010000084F85080032068E7A06818B92068C16898
:101010008068009084F851A084F85080606D0028AA
:10102000F1D0012059E710B5401EB0F1807F01D307
:10103000012010BD4FF0E02460610F21601700F027
:10104000BDFB0020A06107202061002010BD70B50D
:10105000040004D094F84100002510B106E00120FE
:1010600070BD84F84050204600F024F8242084F815
:1010700041002068C16821F40051C160204600F0A1
:1010800025FA2068016921F49041016120684169D5
:1010900021F02A0141612068C16841F40051C1601A
:1010A0006564202084F8410084F8420065630020D4
:1010B00070BD000030B585B0002400940194029406
:1010C000039400681449884224D11448816941F48A
:1010D00080418161816901F480410491816941F01D
:1010E0000401816180690E4D00F0040004904FF40A
:1010F000007000900220019003200390694628466A
:10110000FFF7ACF82815CDE900046946284602949B
:10111000FFF7A4F805B030BD0038014000100240D0
:10112000000801402DE9F843044690F84100984634
:1011300016460D46202802D00220BDE8F88385B16E
:101140007EB100206064212084F84100FFF788F917
:10115000A6848146E684A0682027B0F5805F02D08F
:1011600003E00120E9E7206910B12E4600250EE0DA
:1011700000260CE08021204600F0EEF9A8B9C6B1A7
:1011800016F8010B21684860E08C401EE084E08C7A
:101190004B464FF00002CDF800800028EAD14FF016
:1011A0004001204600F0D8F940B184F84170032096
:1011B000C3E735F8020BC0F30800E3E784F8417099
:1011C0000020BAE7FEE7000010B586B000200090CE
:1011D0000190029003901248816941F020018161E1
:1011E000816901F020010491816941F0040181616C
:1011F00080690C4C00F00400049000220421204679
:10120000FFF728F904200121CDE900010220CDE9F2
:10121000021069462046FFF721F806B010BD000015
:101220000010024000080140104810B50E4901604E
:101230004FF482714160002102228160C0E90312F3
:1012400001224261520282610822C0E90721416203
:1012500081620A21C162FFF7FFFB002803D0BDE8CD
:101260001040FEF7F8BF10BD0030014030000020F4
:101270000C4810B50A4901604FF4E131416000218A
:1012800081600C22C160C0E904128161C161FFF775
:10129000DEFE002803D0BDE81040FEF7DCBF10BD25
:1012A0000038014088000020FEE7FEE77047F8B5EF
:1012B000044640684FF48273984217D1A0684FF4F7
:1012C0008065B0F5004F01D0A8420FD120680668B4
:1012D00026F0400606606068984207D1A068A842E0
:1012E00004D100920B460022012103E000920B463C
:1012F00000228021204600F033F8002804D0606DE1
:1013000040F0200060650320F8BDF8B515460E4694
:101310000B46009204460122022100F021F840B958
:101320003346002280212046009500F019F800285D
:1013300004D0606D40F0200060650320F8BD00001F
:101340000A46014664230148FFF718BC300000201C
:101350000A46014664230148FFF7BABC300000206A
:101360002DE9F8431E46914688460446089DFFF73E
:1013700077F8401B351AFFF773F8074625480068D1
:10138000C0F3CB30684338E0701C37D0FFF768F803
:10139000C01BA84203D215B1009860B32CE02068AE
:1013A000416821F0E00141606068B0F5827F0BD1B7
:1013B000A068B0F5004F02D0B0F5806F04D120686E
:1013C000016821F040010160A06AB0F5005F09D119
:1013D0002068016821F4005101602068016841F42F
:1013E00000510160012084F85100002084F8500071
:1013F0000320BDE8F8830025401E00902068816826
:1014000038EA010004D000214945BDD10020F0E7B1
:101410000121F9E7140000207047FFF727B830B525
:101420008FB028216846FEF7B6FE14210AA8FEF701
:10143000B2FE01210804CDE9001000240294022527
:101440000491CDE907504FF4E01009906846FFF78A
:1014500073F908B172B6FEE70F20CDE90A054FF423
:101460008060CDE90C4002210AA80E94FFF788F8AD
:10147000002801D072B6FEE70FB030BD704701689A
:101480000C3151E8002F22F4907241E80023002B28
:10149000F5D10168143151E8002F22F0010241E832
:1014A0000023002BF5D1016B012909D101680C3112
:1014B00051E8002F22F0100241E80023002BF5D163
:1014C000202180F8421000210163704710B50446C6
:1014D00000680169E26821F440511143016121690A
:1014E000A0680843616908432168CA6841F20C6337
:1014F0009A430243CA6020684169A26921F440719D
:101500001143416113492068884202D1FFF7DEF898
:1015100001E0FFF7CBF800EBC00101EB00106168C0
:1015200064228900B0FBF1F1B1FBF2F06FF0180317
:10153000434301EB8303322101EB0311B1FBF2F1D1
:1015400001F0F00202EB001001F00F0108442168E5
:10155000886010BD003801402DE9F84398461746D1
:101560000D460446089E24E0701C22D0FEF778FF4A
:10157000A0EB0800B0421AD8CEB12068C168490774
:1015800017D5802D15D0402D13D00168C943090708
:101590000FD401680025406800902046FFF76FFFD8
:1015A0000820606484F840500120BDE8F8830320DF
:1015B000FBE72068006835EA000004D00020B8424C
:1015C000D2D00020F1E70120F9E7FEE711B581B0A4
:1015D00020208DF8000001980005019000F0C6F869
:1015E00000F098F80A4C002204212046FEF732FF52
:1015F00001216846FFF7ACFE032101A8FFF7A8FE12
:10160000012204212046FEF725FF00F083F81CBDCF
:101610000008014077B581B0054602208DF8000032
:10162000029814460002029000F0A0F80C4E00222E
:1016300004213046FEF70EFF01216846FFF788FEC1
:10164000032102A8FFF784FE21462846FFF780FE0B
:10165000012204213046FEF7FDFE00F05BF87FBD5D
:101660000008014077B581B0064603208DF80000E0
:10167000029815460002029000F04CF8114C00222E
:1016800004212046FEF7E6FE01216846FFF760FED2
:10169000032102A8FFF75CFE20B929463046FFF778
:1016A0004FFE40B1012204212046FEF7D3FE4FF049
:1016B000FF3004B070BD012204212046FEF7CAFEAF
:1016C0000020F6E7000801407CB5002004460090A9
:1016D0000EA00F4D00680190002204212846FEF75D
:1016E000B9FE042101A8FFF733FE38B9022168468C
:1016F000FFF726FE10B9BDF8000044BA012204210C
:101700002846FEF7A7FE20467CBD000090000000A2
:10171000000801407CB50525134E002401948DF886
:1017200000408DF80450002204213046FEF792FE5E
:10173000042101A8FFF70CFE20B901216846FFF73C
:10174000FFFD40B1012204213046FEF783FE204612
:10175000C007E3D17CBD012204213046FEF77AFEAA
:101760009DF80000F4E700000008014038B50620AD
:10177000094C8DF80000002204212046FEF76AFE85
:1017800001216846FFF7E4FD012204212046FEF70F
:1017900061FEFFF7BFFF38BD000801400FB4054BE5
:1017A00010B503A9044A029800F028F810BC5DF8AF
:1017B00014FB0000591C0008180000200907090E3E
:1017C000002804DB00F1E02080F80014704700F0EE
:1017D0000F0000F1E02080F8141D704702E008C8F7
:1017E000121F08C1002AFAD170477047002001E09B
:1017F00001C1121F002AFBD1704700002DE9FF4FE5
:101800008DB00F460546002606E025280BD0DDE901
:101810000F1290476D1C761C28780028F5D111B066
:101820003046BDE8F08F0024A246A1460122EA49D5
:1018300000E0044315F8013F203B02FA03F00842A0
:10184000F7D128782A2810D06FF02F022878A0F13D
:101850003001092914D80AEB8A0102EB410144F056
:10186000020400EB010A6D1CF0E701CF5FEA000AF9
:1018700003D544F40054CAF1000A44F002046D1C7C
:1018800028782E2817D115F8010F44F004042A28CF
:101890000ED06FF02F022878A0F1300109290AD864
:1018A00009EB890102EB410100EB01096D1CF2E734
:1018B00057F8049B6D1C28786C280FD006DC4C2848
:1018C00017D068280DD06A2814D104E0742810D0ED
:1018D0007A280FD10DE044F400140AE044F4801497
:1018E00001E044F440146978814202D104F5801487
:1018F0006D1C6D1C2A786E2A1FD00CDC632A31D037
:1019000004DC002A8BD0582A11D19FE0642A68D0C9
:10191000692A0CD165E0732A2ED004DC6F2A73D0BB
:10192000702A04D197E0752A6FD0782A6ED01046BD
:10193000DDE90F129047761C4CE1C4F302500228F7
:1019400006D0032809D0042801CF09D0066041E160
:1019500001CFF117C0E900613CE101CF068039E118
:10196000067037E117F8040B8DF8000000208DF8A1
:101970000100EB46012003E057F804BB4FF0FF30B5
:1019800061074FF0000102D40DE008F10101884623
:1019900049450FDA8045F8DB1BF808100029F4D11F
:1019A00008E008F1010188468142FADB1BF80810C3
:1019B0000029F6D1DDE90F23AAEB08008146214674
:1019C00000F032F9304400EB080604E0DDE90F12C4
:1019D0001BF8010B9047B8F10108F7D221464846A1
:1019E000F3E00A21C4F302534FF0000B0891022BDD
:1019F00004D001CFC117032B09D00AE0FF1D27F047
:101A00000707F7E8020108E02EE01DE01EE000B243
:101A1000C117042B01D140B2C117002907DA4FF0DA
:101A2000000CD0EB0C006CEB01012D2302E0230530
:101A300004D52B238DF82430012303E0E30701D0E4
:101A40002023F7E7984656E00A210EE010204FF0D9
:101A5000000B08900CE010214FF0000B44F0040440
:101A60004FF00809089103E008214FF0000B08919E
:101A7000C4F30253022B04D001CF0021032B06D064
:101A800006E0FF1D27F00707F7E8020103E080B238
:101A9000042B00D1C0B24FF0000823072BD5702AC9
:101AA00007D0DDF820C08CF0100C5CEA0B0C05D0E0
:101AB0000EE040238DF82430012308E050EA0103B2
:101AC00006D030238DF824308DF825200223984647
:101AD000DDF820C08CF0080C5CEA0B0C0BD150EA4E
:101AE000010301D1630706D530238DF824304FF070
:101AF0000108A9F10109582A04D038A20B9208AABA
:101B00000A920BE03AA2F9E75B46089AFEF74EFB11
:101B10000B9B9B5C0A9A521E0A92137050EA0102B8
:101B2000F2D10A98ADEB000000F1200B600702D55E
:101B300024F4803401E04FF00109D94502DDA9EB1E
:101B40000B0000E0002000EB0B0141440890AAEBE1
:101B5000010AE00306D4DDE90F232146504600F0D8
:101B600063F806444FF0000908E009A911F80900DC
:101B7000DDE90F12904709F10109761CC145F4DB3C
:101B8000E0030CD5DDE90F232146504600F04CF868
:101B9000064404E0DDE90F1230209047761C0899D6
:101BA000481E08900029F5DC08E00A980A99007898
:101BB000491C0A91DDE90F129047761CBBF1000128
:101BC000ABF1010BF1DC21465046DDE90F2300F0BB
:101BD00019F806446D1C1FE6092801003031323324
:101BE0003435363738396162636465660000000059
:101BF0003031323334353637383941424344454643
:101C0000000000002DE9F041044600251E4617465D
:101C1000880404D405E039462020B0476D1C641EBA
:101C2000F9D52846BDE8F0812DE9F04104460025AC
:101C30001E469046C80301D5302700E020278804BF
:101C400004D505E041463846B0476D1C641EF9D501
:101C50002846BDE8F081000013B54FF6FF7301225E
:101C600069460248FFF75EFA00981CBD8800002014
:101C7000FEF704FCFFF7D3FBFFF7A6FAFFF7D4FA51
:101C8000FFF7F6FAFFF720FD2C4D014628802CA027
:101C9000FFF784FD32A0FFF781FD0A2200213C48B6
:101CA000FFF7E0FC00263A4F6E60696839A07A5C65
:101CB000FFF774FD6868401C68600A28F5DB3AA0ED
:101CC000FFF76CFD0020FFF781FC41A0FFF766FDE8
:101CD0000A2200212E48FFF7C5FC6E6069682DA01E
:101CE0007A5CFFF75BFD6868401C68600A28F5DBDA
:101CF00043A0FFF753FD264834460A306E60045572
:101D0000641C0A2CFBDB22480A2200210A306C608A
:101D1000FFF780FC43A0FFF741FD0A2200211C4889
:101D2000FFF7A0FC6E6069681AA07A5CFFF736FDC9
:101D30006868401C68600A28F5DBFEE700000020A8
:101D400057323551363420446576696365204944FD
:101D5000206973203078253034780D0A00000000A7
:101D60002D2D2D2D2D2D2D2D20726561642064616A
:101D70007461206265666F72652077726974652090
:101D80002D2D2D2D2D2D2D2D2D2D2D0D0A0000004D
:101D90001C0000205B3078253038785D3A3078259B
:101DA0003032780D0A0000002D2D2D2D2D2D2D2DDA
:101DB00020657261736520736563746F72203020D3
:101DC0002D2D2D2D2D2D2D2D2D2D2D0D0A0000000D
:101DD0002D2D2D2D2D2D2D2D2072656164206461FA
:101DE0007461206166746572206572617365202D6F
:101DF0002D2D2D2D2D2D2D2D2D2D0D0A000000000A
:101E00002D2D2D2D2D2D2D2D20777269746520649B
:101E1000617461202D2D2D2D2D2D2D2D2D2D2D0D70
:101E20000A0000002D2D2D2D2D2D2D2D20726561E8
:101E300064206461746120616674657220777269E0
:101E40007465202D2D2D2D2D2D2D2D2D2D2D0D0A93
:101E500000000000010202030405060708090A0B3E
:101E60000C0D0E0F10100000000000000000010219
:101E70000304060708090000000001020304000033
:101E8000A01E0008000000201C000000DC17000855
:101E9000BC1E00081C000020B4040000EC17000861
:101EA0000000000000000000010000001000000021
:0C1EB0000000000000127A00000000009A
:0400000508000131BD
:00000001FF
